S014000041737369676E6D656E745F312E7372656367
S11300000C942A000C943F000C943F000C943F0085
S11300100C943F000C943F000C943F000C943F0060
S11300200C943F000C943F000C943F000C943F0050
S11300300C943F000C943F000C943F000C943F0040
S11300400C943F000C943F000C943F000C943F0030
S11300500C943F0011241FBECFE5D8E0DEBFCDBF16
S113006010E0A0E6B0E0E8ECF3E002C005900D92E9
S1130070A237B107D9F70E94AF000C94E2010C94A7
S11300800000982F977086958695869519F0813093
S1130090F1F00895613069F44BB321E030E0B90127
S11300A002C0660F771F9A95E2F7CB01842B8BBBB6
S11300B008954BB321E030E0B90102C0660F771F09
S11300C09A95E2F7CB01809584238BBB0895613028
S11300D069F448B321E030E0B90102C0660F771F2C
S11300E09A95E2F7CB01842B88BB089548B321E0AD
S11300F030E0B90102C0660F771F9A95E2F7CB0191
S11301008095842388BB089531E0432F3095E0E641
S1130110F0E080E0982F9695969596952081213071
S113012069F4992319F0913029F014C09AB3942BEF
S11301309ABB10C097B3942B97BB0CC0992319F0AA
S1130140913029F007C09AB393239ABB03C097B3A5
S1130150932397BB8F5F32968032E1F608950E9415
S1130160840060E088E00E944100D1E0C0E002C069
S1130170CF5FDF5FC1111BC08BE49DE10197F1F7F5
S113018000C0000061E080E00E94410087EA91E63F
S11301900197F1F700C0000060E081E00E94410097
S11301A087EA91E60197F1F700C000004EC060E0D5
S11301B080E00E94410087EA91E60197F1F700C0D0
S11301C00000C130D9F48BE49DE10197F1F700C040
S11301D0000061E081E00E94410087EA91E6019716
S11301E0F1F700C0000060E082E00E94410087EA6D
S11301F091E60197F1F700C000004EC060E081E095
S11302000E94410087EA91E60197F1F700C00000DF
S1130210C230D9F48BE49DE10197F1F700C00000EE
S113022061E082E00E94410087EA91E60197F1F7DC
S113023000C0000060E083E00E94410087EA91E68C
S11302400197F1F700C000004EC060E082E00E9418
S1130250410087EA91E60197F1F700C00000C3303E
S1130260D9F48BE49DE10197F1F700C0000061E04F
S113027083E00E94410087EA91E60197F1F700C00C
S1130280000060E084E00E94410087EA91E6019763
S1130290F1F700C000004EC060E083E00E9441001E
S11302A087EA91E60197F1F700C00000C430D9F461
S11302B08BE49DE10197F1F700C0000061E084E068
S11302C00E94410087EA91E60197F1F700C000001F
S11302D060E085E00E94410087EA91E60197F1F72A
S11302E000C0000044C060E084E00E94410087EA4E
S11302F091E60197F1F700C00000C530D9F48BE412
S11303009DE10197F1F700C0000061E085E00E94E3
S1130310410087EA91E60197F1F700C0000060E030
S113032086E00E94410087EA91E60197F1F700C058
S113033000003AC060E085E00E94410087EA91E64F
S11303400197F1F700C00000C63089F48BE49DE109
S11303500197F1F700C0000061E086E00E944100CF
S113036087EA91E60197F1F700C000001DC060E044
S113037086E00E94410087EA91E60197F1F700C008
S11303800000C73089F48BE49DE10197F1F700C0C8
S1130390000061E087E00E94410087EA91E601974E
S11303A0F1F700C00000E4CE60E087E00E94410065
S11303B087EA91E60197F1F700C00000D93008F40C
S10B03C0D7CECFCEF894FFCF95
S11303C80100010001000100010001000100010019
S10503D800011E
S9030000FC
