S014000041737369676E6D656E745F322E7372656366
S11300000C942A000C9434000C9434000C943400A6
S11300100C9434000C9434000C9434000C9434008C
S11300200C9434000C9434000C9434000C9434007C
S11300300C9434000C9434000C9434000C9434006C
S11300400C9434000C9434000C9434000C9434005C
S11300500C94340011241FBECFE5D8E0DEBFCDBF21
S11300600E9436000C9460000C940000B898BC9870
S1130070A29AA79A8B9AD39A80E090E0B09B05C08D
S1130080DB9A843091051CF0F9CFDB98FACFB09954
S11300900196009719F4AA9AAF980DC0AA988130D6
S11300A0910519F4AF9A9398F2CFAF9882309105E5
S11300B011F4939AECCF93988430910544F3DECFF6
S10700C0F894FFCFDE
S9030000FC
