S01C0000496E746572727075745F61737369676E6D656E742E73726563A3
S11300000C942A000C9483000C9447000C94470031
S11300100C9447000C9447000C9447000C94470040
S11300200C9447000C9447000C9447000C94470030
S11300300C9447000C9447000C9447000C94470020
S11300400C9447000C9447000C9447000C94470010
S11300500C94470011241FBECFE5D8E0DEBFCDBF0E
S113006010E0A0E6B0E0E2E6F1E002C005900D92F7
S1130070AA36B107D9F720E0AAE6B0E001C01D9284
S1130080AB36B207E1F70E949A000C94AF000C94CF
S11300900000CF93DF93CDB7DEB72A970FB6F8945D
S11300A0DEBF0FBECDBF8AE0E0E6F0E0DE011196D0
S11300B001900D928A95E1F7FE0131969E01255F2C
S11300C03F4F4FEF89E698E1415080409040E1F77F
S11300D000C0000081918295807F8BBB4FEF89E641
S11300E098E1415080409040E1F700C00000E217E1
S11300F0F30739F72A960FB6F894DEBF0FBECDBFCB
S1130100DF91CF9108951F920F920FB60F92112491
S11301108F9380916A008F5F80936A0080916A0058
S1130120893011F410926A008F910F900FBE0F90D6
S11301301F90189580E48BBF85B78E7F85BF85B7E8
S1130140826085BF78948AB3806F8ABB87B38660E8
S113015087BB88B3866088BB0E944900FACFF894B5
S1050160FFCFCB
S10D01620001020304050607080962
S9030000FC
